:020000040800F2
:1000000090200020FD1400084D0300084F03000855
:1000100053030008570300085B03000800000000BA
:100020000000000000000000000000005F03000866
:100030006103000800000000630300086503000876
:1000400017150008171500081715000817150008E0
:10005000171500081715000895140008BD140008AE
:1000600017150008171500081715000817150008C0
:1000700017150008171500081715000817150008B0
:1000800017150008171500081715000817150008A0
:100090001715000817150008171500081715000890
:1000A0001715000817150008171500081715000880
:1000B0004B130008A31200081715000817150008B5
:1000C0001715000817150008171500081715000860
:1000D0001715000815120008171500081715000855
:1000E0001715000817150008171500081715000840
:1000F0001715000817150008171500081715000830
:10010000171500081715000817150008171500081F
:10011000171500081715000817150008171500080F
:1001200017150008171500081715000817150008FF
:1001300000F002F800F0B2F80AA090E8000C824447
:100140008344AAF10107DA4501D100F0A7F8AFF224
:10015000090EBAE80F0013F0010F18BFFB1A43F0A5
:10016000010318476C5E00008C5E00000A444FF0EB
:10017000000C10F8013B13F0070408BF10F8014B06
:100180001D1108BF10F8015B641E05D010F8016B4B
:10019000641E01F8016BF9D113F0080F1EBF10F8AF
:1001A000014BAD1C0C1B09D16D1E58BF01F801CBD2
:1001B000FAD505E014F8016B01F8016B6D1EF9D555
:1001C0009142D6D37047000000230024002500266A
:1001D000103A28BF78C1FBD8520728BF30C148BFAA
:1001E0000B6070476E2903F0C481702903F00A8008
:1001F000662904F09F82652904F09C82672904F037
:1002000099826129AFF3008003681B0A28BF41F07F
:100210008001692902F07887642902F075877529C1
:1002200002F072876F2903F0AF84782902F0D68735
:10023000E92903F04784E42903F04484F52903F015
:100240004184EF2903F0AC84F82902F0D5870368D4
:10025000DB0928BF41F08001632903F0438573293E
:1002600003F04885E32903F05385F32903F058850B
:10027000002070471FB503F0ACF803F09FFC0400AA
:100280000020002104F02AFA401C606000200021B8
:1002900004F03AFAE0601FBD10B510BD03F0D7FDC1
:1002A0001146FFF7E7FF00F023F803F0F5FD03B474
:1002B000FFF7F2FF03BC03F035FE00000B49D1F855
:1002C00000C04A685CF8043B1068184442F8040B0C
:1002D0008C4528BFA1F1DC0C8A4228BFA1F1DC02C9
:1002E000C1F800C04A6020F000407047241A002086
:1002F00000F050F900F01AFE00200D4908604FF0A0
:10030000FA0000F04FFE01200A49C1F880014FF4C5
:10031000E13000F073FE00F00FFD07A1094802F084
:10032000B3FE00F00FF900200749086000BFFEE7A8
:10033000800121420000214257616974696E672083
:10034000466F72003419002090012142704700BFAF
:10035000FEE700BFFEE700BFFEE700BFFEE7704715
:1003600070477047704700000CB500200190009066
:100370006B48006840F480306949086000BF6848F5
:10038000006800F4003000900198401C0190009833
:1003900018B90198B0F5A06FF1D16148006810F468
:1003A000003F02D00120009001E000200090009862
:1003B000012842D15B48006840F0100059490860AC
:1003C0000846006820F0030008600846006840F016
:1003D0000200086052484068514948600846406839
:1003E00048600846406840F48060486008464068BD
:1003F00020F47C1048600846406840F4E8104860EB
:100400000846006840F08070086000BF44480068FB
:1004100010F0007FFAD04248406820F003004049C5
:1004200048600846406840F00200486000BF3C4811
:10043000406800F00C000828F9D10CBD10B5FFF79A
:1004400093FF10BD10B53648006840F001003449F4
:100450000860084640683449084031494860084609
:100460000068324908402E4908600846006820F4B8
:10047000802008600846406820F4FE0048604FF481
:100480001F008860FFF7DAFF4FF00060284908601E
:1004900010BD10B5002100200022214B5B6803F045
:1004A0000C0121B1042906D0082928D107E0214BED
:1004B000214C236027E01F4B1F4C236023E0184B87
:1004C0005B6803F47010164B5B6803F48032022300
:1004D00003EB904022B9194B4343174C23600DE0C6
:1004E0000F4B5B6813F4003F04D0144B4343124C92
:1004F000236003E00F4B43430F4C236003E00D4B9D
:100500000D4C236000BF00BF054B5B68C3F30313B2
:100510000B4CE15C084B1B68CB40074C236010BDC3
:1005200000100240002002400000FFF8FFFFF6FE2E
:1005300008ED00E000127A000C00002000093D00E8
:100540001000002008B50121142001F00DFB10203F
:10055000ADF800008DF8030003208DF80200694615
:100560000A4801F04BF81021084801F0F2F84FF466
:100570000050ADF800006946054801F03FF84FF41F
:100580000051034801F0E5F808BD000000080140F3
:100590000010014008B50121042001F0E5FA102007
:1005A0008DF803000120ADF8000003208DF8020053
:1005B0006946044801F022F80121024801F0C9F817
:1005C00008BD00000008014010B52021FA4801F0E4
:1005D000C0F88021F84801F0BEF88021F64801F00B
:1005E000B8F810BD10B52021F34801F0B2F8202171
:1005F000F14801F0B0F810BD70B5044600251BE0CD
:100600002021ED4801F0A7F814F0800F04D08021DC
:10061000E94801F09EF803E08021E74801F09BF8EB
:100620002021E54801F095F82021E34801F093F8F6
:100630006006040E681CC5B2082DE1DB70BD10B564
:100640008021DD4801F085F82021DB4801F081F8A8
:100650008021D94801F07FF82021D74801F07BF8AC
:1006600010BD70B505460C46FFF7E9FF7820FFF78F
:10067000C3FFFFF7B7FF1CB14020FFF7BDFF02E04B
:100680000020FFF7B9FFFFF7ADFF2846FFF7B4FFE3
:10069000FFF7A8FFFFF798FF70BD10B504461CB91F
:1006A0000021A620FFF7DDFF012C03D10021A720A8
:1006B000FFF7D7FF10BD10B504463CB90021C82094
:1006C000FFF7CFFF0021A120FFF7CBFF012C07D1BF
:1006D0000021C020FFF7C5FF0021A020FFF7C1FFC8
:1006E00010BD10B500218D20FFF7BBFF00211420A5
:1006F000FFF7B7FF0021AF20FFF7B3FF10BD10B524
:1007000000218D20FFF7ADFF00211020FFF7A9FF8A
:100710000021AF20FFF7A5FF10BD70B500241CE03D
:1007200004F1B001C8B20021FFF79BFF0021084689
:10073000FFF797FF00211020FFF793FF002508E047
:100740009E4901EBC501085D0121FFF78AFF681C86
:10075000C5B2802DF4DB601CC4B2082CE0DB70BD98
:1007600070B500240CE0002506E00020934901EB61
:10077000C5010855681CC5B2802DF6DB601CC4B2EB
:10078000082CF0DBFFF7C9FF70BD70B50A46CE1725
:1007900001EB5676C6F3C703CE1701EB5676F6107B
:1007A000A1EBC606F4B20122A240D5B2834A02EB05
:1007B000C002D25C2A43814E06EBC006F25470BDE3
:1007C00070B50B46CE1701EB5676C6F3C702CE17AF
:1007D00001EB5676F610A1EBC606F4B20123A34056
:1007E000DDB2764B03EBC0039B5CDB43734E06EB41
:1007F000C006B354714B03EBC0039B5C2B436F4E9D
:1008000006EBC006B3546D4B03EBC0039B5CDB43AC
:100810006A4E06EBC006B35470BD2DE9F84F05468D
:100820000E4617469846002D0ADB802F08DC002E66
:1008300006DBB8F1400F03DCBD4201DC464501DDBB
:10084000BDE8F88FBD420DD1002406E03019C1B2D9
:100850002846FFF79AFF601CC4B2A8EB0600A0422E
:10086000F4DC30E046450CD1002406E02919C8B27A
:100870003146FFF78AFF601CC4B2781BA042F5DC4A
:1008800021E0A8EB060000F0FF0A781B00F0FF0B48
:100890000AEB8A00400090FBFBF000F0FF09002407
:1008A0000EE004FB09F00A2190FBF1F03044C0B2E5
:1008B00029190090C8B20099FFF767FF601CC4B205
:1008C000781BA042EDDC00BFBAE72DE9F0430646F5
:1008D0000F469046002544463BE03A1BD1B27219C0
:1008E000D0B2FFF752FF3A1BD1B2721BD0B2FFF762
:1008F0004CFF3A19D1B2721BD0B2FFF746FF3A193A
:10090000D1B27219D0B2FFF740FF7A19D1B23219C1
:10091000D0B2FFF73AFF7A1BD1B23219D0B2FFF74B
:1009200034FF7A1BD1B2321BD0B2FFF72EFF7A19F7
:10093000D1B2321BD0B2FFF728FF6D1C05FB05F0CA
:1009400004FB040008FB1809B9F1000F01DD641E67
:100950006D1E6000604308FB08F18842BDDABDE807
:10096000F0832DE9FF4F81B080460E461C4600966D
:100970002046E31704EB5373DB1021464FEAE47C77
:1009800004EB5C7C4FEAEC0CB4EBCC0C02D04FF0E7
:10099000010C01E04FF0000C6344224604EBD27CD2
:1009A0004FEA6C0C03FB0CF303F0FF0B03982038A9
:1009B000C7B200254CE0000000080140B41400203C
:1009C0000C2C07D107EB4700FE4901EB800010F823
:1009D00005A014E0102C05D1FB4800EB071010F81F
:1009E00005A00CE0182C07D107EBC700F74901EB75
:1009F000800010F805A002E005B0BDE8F08F4FF0D0
:100A000000091FE01AF0800F04D031464046FFF77E
:100A1000BCFE03E031464046FFF7D2FE4FEA4A6093
:100A20004FEA106A701CC6B20098301AA04205D175
:100A3000009E08F1010000F0FF0806E009F1010046
:100A400000F0FF09B9F1080FDCDB00BF681CC5B27C
:100A50005D45B5DB00BFCFE7F0B506460F4614464F
:100A60001D4613E022782B4639463046FFF779FFC2
:100A7000284605EBD07106EB6101CEB2C5F18000CE
:100A8000B04202DA0026B81CC7B2641C20782028C5
:100A900002DB20787E28E5DDF0BDF0B504460D468A
:100AA00016461F463B46CAA229462046FFF7D4FFFA
:100AB0003B46324629462046FFF7CEFFF0BD10B533
:100AC0000246012000E050430B00A1F10104E1B215
:100AD000F9D110BD2DE9F04F06468A4691461F46D2
:100AE000099C00252CE0781B401EC1B20A20FFF7AC
:100AF000E6FFB9FBF0F00A21B0FBF1F201FB1208AE
:100B0000B8F1000F0CD1A34604EBDB71491001FBD7
:100B10000561C8B2234630225146FFF722FF0DE09F
:100B2000A34604EBDB71491001FB0561C8B208F173
:100B30003001CAB223465146FFF713FF681CC5B205
:100B4000BD42D0DBBDE8F08F70B505460024A54856
:100B5000007804285CDAA3490878C11700EB91718A
:100B60008910B0EB810106D0012909D002290CD0EF
:100B7000032914D10EE029469B4802F033FC0FE014
:100B800029469A4802F02EFC0AE02946984802F0CD
:100B900029FC05E02946974802F024FC00E000BF4C
:100BA00000BF90480678F01706EB90708010A6EB17
:100BB00080000007010E10232A460020FFF76DFF7A
:100BC000FFF7ABFDFFF77AFB642190FBF1F201FB2D
:100BD0001204A0B200F0E6F982480678F01706EB9E
:100BE00090708010A6EB80000007010E102382A2F7
:100BF0005820FFF731FFFFF790FDFFF75FFB6421FF
:100C000090FBF1F201FB1204A0B200F0CBF945E039
:100C10007649754802F0E6FB1023734A0021084626
:100C2000FFF71AFF7249714802F0DCFB10236F4A8C
:100C300019460020FFF710FF6E496D4802F0D2FB05
:100C400010236B4A20210020FFF706FF2946694840
:100C500002F0C8FB10232A4630210020FFF71DFFB9
:100C6000FFF75BFDFFF72AFB642190FBF1F201FB2C
:100C70001204A0B200F096F910235FA23021582090
:100C8000FFF7EAFEFFF749FDFFF718FB642190FB31
:100C9000F1F201FB1204A0B200F084F9514800788F
:100CA000401C5049087070BD70B504460D4605F1F2
:100CB000B001C8B20021FFF7D4FC102141EA1410A2
:100CC0000021FFF7CEFC04F00F0141F001000021EC
:100CD000FFF7C7FC70BD2DE9F05F05460E461746CD
:100CE0009846DDF828B04FF00009CA460024E11705
:100CF00004EB5171C910B4EBC10100D101E0601CDB
:100D0000C4B2344614E021462846FFF7CDFFAA4678
:100D10000AE01BF809000121FFF7A3FC09F1010912
:100D20000AF1010000F0FF0ABA45F2DB601CC4B210
:100D30004445E8DBBDE8F09F08B50121042000F040
:100D400013FFB020ADF8000010208DF80300032041
:100D50008DF8020069462A4800F050FCB02128486E
:100D600000F0F7FC0021AE20FFF77BFC00210846D5
:100D7000FFF777FC00211020FFF773FC00214020D3
:100D8000FFF76FFC00218120FFF76BFC0021CF20D3
:100D9000FFF767FC0021A120FFF763FC0021C820BA
:100DA000FFF75FFC0021A620FFF75BFC0021A820D5
:100DB000FFF757FC00213F20FFF753FC0021D32011
:100DC00020E0000038470008AC4B00089C510008A8
:100DD0002020202020202020202020202020202013
:100DE0000000000058140020741400208414002017
:100DF00094140020A41400205B4F4B5D0000000001
:100E000000080140FFF72DFC00210846FFF729FCF0
:100E10000021D520FFF725FC00218020FFF721FCD1
:100E20000021D920FFF71DFC0021F120FFF719FC5C
:100E30000021DA20FFF715FC00211220FFF711FC3A
:100E40000021DB20FFF70DFC00214020FFF709FC0B
:100E500000212020FFF705FC00210220FFF701FC04
:100E600000218D20FFF7FDFB00211420FFF7F9FB87
:100E70000021A420FFF7F5FB0021A620FFF7F1FBDE
:100E80000021AF20FFF7EDFBFFF76AFC08BD000073
:100E900008B50121082000F067FE0120ADF8000030
:100EA00048208DF8030069461C4800F0A7FB02208B
:100EB000ADF8000048208DF803006946174800F09F
:100EC0009DFB08BD10B5044614B1012014490870FB
:100ED00013480078A8B11348006810B112480068A0
:100EE00078B90A2000F05EF800200D4908700D481E
:100EF000006808B9012010BD0B48006858B90220ED
:100F0000F9E708480068012805D10748006801286A
:100F100001D1034908700020EDE70000000C0140FA
:100F200059140020008121420481214210B56FF044
:100F3000040001F0D5F82D4800682D49B0FBF1F010
:100F40002C4908700846007800EB4001C1EBC01046
:100F50004FF6FF7101EAC0002749088010BD014625
:100F6000244A12784A434FF0E0235A6100229A61E2
:100F70001A46126942F001021A6100BF4FF0E022E6
:100F8000106910F0010F02D010F4803FF6D04FF03E
:100F9000E022126922F001024FF0E0231A610022E0
:100FA0009A6170470146144A12884A434FF0E02381
:100FB0005A6100229A611A46126942F001021A61CE
:100FC00000BF4FF0E022106910F0010F02D010F4C2
:100FD000803FF6D04FF0E022126922F001024FF07C
:100FE000E0231A6100229A61704700000C00002083
:100FF00000127A005A1400205C14002010B586B04C
:1010000004460121042000F0AFFD0121880300F017
:10101000ABFD18208DF817004FF40070ADF81400E8
:1010200003208DF8160005A9804800F0E7FA042097
:101030008DF817000002ADF8140003208DF816009B
:1010400005A97A4800F0DAFA01940020ADF8100002
:101050000C20ADF80E000020ADF80C00ADF80A0031
:10106000ADF8080001A9724800F029FE012170487E
:1010700000F0B1FE012240F225516D4800F0B7FEAC
:1010800025208DF8000001208DF8030000208DF848
:10109000010002208DF80200684600F0D6FF06B07D
:1010A00010BD10B586B004460121042000F05CFD9F
:1010B0000121480400F065FD18208DF81700042078
:1010C000ADF8140003208DF8160005A9574800F06C
:1010D00095FA04208DF817000820ADF814000320BD
:1010E0008DF8160005A9514800F088FA01940020F7
:1010F000ADF810000C20ADF80E000020ADF80C008B
:10110000ADF80A00ADF8080001A94A4800F0D7FD83
:101110000121484800F05FFE012240F22551454878
:1011200000F065FE26208DF8000001208DF80300F8
:1011300000208DF801008DF80200684600F085FF60
:1011400006B010BD2DE9F04107460C4615460026B5
:101150000DE014F8011B384600F0AAFE00BF402144
:10116000384600F013FF0028F9D0701C86B2AE425A
:10117000EFDBBDE8F0810FB430B5CBB0054601AC74
:1011800050A800904FF4947101A8009B4F9A01F071
:1011900061FF002000900BE014F8011B284600F0CE
:1011A00087FE00BF4021284600F0F0FE0028F9D05D
:1011B00020780028F0D14BB030BC5DF814FB0FB4A0
:1011C00010B5CCB002AC4FA801904FF4947102A8B6
:1011D000019B4E9A01F03EFF0020019016A1144899
:1011E000FFF7C9FF0BE014F8011B114800F060FE87
:1011F00000BF40210E4800F0C9FE0028F9D0207839
:101200000028F0D10FA10A48FFF7B5FF4CB010BC81
:101210005DF814FB10B540F22551054800F0CCFEF6
:1012200018B12021024800F0BEFE10BD00080140A8
:1012300000380140004400405B4C4F475D202F3E8A
:10124000200000000D0A00007FB505460C46012174
:10125000022000F096FCADF80850ADF804400020E4
:10126000ADF80600ADF80A0001A9524801F02AF8CD
:10127000012211464F4801F09CFB01214D4801F02D
:101280007DFB1D208DF8000001208DF8010003205A
:101290008DF8020001208DF80300684600F0D5FEAD
:1012A0007FBD10B50121434801F031FEF0B10121AD
:1012B000404801F03DFE4048007888B13F48006852
:1012C00008B9012000E000203C4908603C48D0F803
:1012D000800108B9012000E000203A49086005E0DB
:1012E0000120364908603649C1F8800110BD7FB53C
:1012F00005460C460121084600F043FCADF80850B5
:10130000ADF804400020ADF80600ADF80A0001A9D0
:101310004FF0804000F0D6FF01221146900701F007
:1013200048FB0121880701F029FB1C208DF80000F3
:1013300000208DF8010003208DF8020001208DF8B7
:101340000300684600F081FE7FBD10B501218807CB
:1013500001F0DDFD00282BD00121880701F0E8FD18
:1013600019A11B4801F090FE1023194A00212020EA
:10137000FFF772FB174803781748027817A1144843
:1013800001F082FE1023124A19460020FFF764FB89
:10139000164803781648027816A10D4801F074FE2D
:1013A00010230B4A20210020FFF756FBFFF7B5F969
:1013B00010BD00000004004000000020B4012242E3
:1013C000000021428001214257656C636F6D65000A
:1013D00034190020030000200200002048554D3A37
:1013E00025642E256420252500000000050000202E
:1013F0000400002054656D703A25642E2564204356
:10140000000000000EB50121084600F0ADFBFFF71B
:101410003FFD0021012000F005FA0120019000208D
:101420008DF808000C208DF8090001208DF80A00C5
:1014300001A801F08FFD0121084600F0F3F9022018
:10144000019000208DF808000C208DF80900012083
:101450008DF80A0001A801F07DFD06208DF800003E
:1014600002208DF801008DF8020001208DF80300A4
:10147000684600F0EAFD07208DF8000002208DF894
:1014800001008DF8020001208DF80300684600F08D
:10149000DCFD0EBD10B50A20FFF784FD1248006880
:1014A00038B91248006808B9012000E000200F494F
:1014B00008604FF0010001F0C4FD10BD10B50A2016
:1014C000FFF770FD0A48006850B90A48007808B96B
:1014D000012000E00020074908700020064908703C
:1014E000022001F0AEFD10BD008121429001214299
:1014F00004812142000000200100002009488047AB
:1015000009480047FEE7FEE7FEE7FEE7FEE7FEE7E5
:10151000FEE7FEE7FEE7FEE704480549054A064BFD
:10152000704700004504000831010008901A0020AF
:1015300090200020901C0020901C002010B5044634
:10154000CA48844208D10121042000F027FB002171
:10155000042000F023FB46E0C548844208D1012165
:10156000082000F01BFB0021082000F017FB3AE0E8
:10157000C048844208D10121102000F00FFB002157
:10158000102000F00BFB2EE0BB48844208D1012163
:10159000202000F003FB0021202000F0FFFA22E0D1
:1015A000B648844208D10121402000F0F7FA00211A
:1015B000402000F0F3FA16E0B148844208D101213E
:1015C000802000F0EBFA0021802000F0E7FA0AE02A
:1015D000AC48844207D10121801500F0DFFA0021D8
:1015E000A01500F0DBFA10BD10B50121084600F08F
:1015F000D5FA0021012000F0D1FA10BD2DE9F0410B
:10160000024600250026002000230024002791F830
:1016100003C00CF00F0591F803C01CF0100F03D0AD
:1016200091F802C04CEA050591F800C0BCF1000F2A
:1016300031D0146800202BE04FF0010C0CFA00F3BD
:10164000B1F800C00CEA03069E4220D183004FF09F
:101650000F0C0CFA03F7BC4305FA03FC4CEA040434
:1016600091F803C0BCF1280F06D14FF0010C0CFA21
:1016700000FCC2F814C00AE091F803C0BCF1480FA6
:1016800005D14FF0010C0CFA00FCC2F810C0401C50
:101690000828D1D31460B1F800C0BCF1FF0F34DDCD
:1016A000546800202EE000F1080C4FF0010808FA01
:1016B0000CF3B1F800C00CEA03069E4221D183006E
:1016C0004FF00F0C0CFA03F7BC4305FA03FC4CEA8D
:1016D000040491F803C0BCF1280F05D100F1080CF7
:1016E00008FA0CF8C2F8148091F803C0BCF1480F56
:1016F00007D100F1080C4FF0010808FA0CF8C2F805
:101700001080401C0828CED35460BDE8F0814FF60D
:10171000FF710180022181700421C170704702466F
:10172000002093680B4201D0012000E000207047A8
:101730000146886880B2704702460020D3680B4299
:1017400001D0012000E0002070470146C86880B247
:10175000704701617047416170470AB1016100E063
:1017600041617047C16070474FF480320A43826123
:101770008161826182698269704702460020424B22
:1017800018684FF68073184040EA021008433E4B39
:10179000186070473D49C8617047F0B50A4600239C
:1017A00000240021002500F00046B6F1004F02D1D0
:1017B000354EF16901E0344E7168C0F3034583B2E0
:1017C00000F44016B6F5401F08D121F070612E4E8E
:1017D000766826F070662C4F7E6012E000F480166A
:1017E000B6F5801F06D1032606FA05F4A14341F0A1
:1017F000706106E0460D360103FA06F6B14341F08A
:10180000706122B1460D360103FA06F6314300F04D
:101810000046B6F1004F02D11B4EF16101E01A4EB5
:101820007160F0BD30B500228B071C0F0F2303FA47
:1018300004F2154B08338C1053F824309343124CA8
:1018400008348D1044F8253023468C1053F824308A
:101850008C07240F00FA04F423430B4C08348D103A
:1018600044F8253030BD0A4908607047000801403F
:10187000000C01400010014000140140001801401C
:10188000001C0140002001400000014000002042F7
:10189000DC002042DD48006840F00100DB490860C0
:1018A00008464068DA490840D84948600846006858
:1018B000D8490840D54908600846006820F48020CF
:1018C00008600846406820F4FE0048604FF41F009E
:1018D00088607047CD49096821F48031CB4A116096
:1018E0001146096821F480211160B0F5803F03D0D2
:1018F000B0F5802F0ED106E0C449096841F480316B
:10190000C24A116007E0C149096841F4A021BF4AF9
:10191000116000E000BF00BF704710B50146002213
:10192000002300204A11012A02D1B84C236806E0A6
:10193000022A02D1B54C236A01E0B44C636A01F07B
:101940001F02012494401C4201D0012000E000202D
:1019500010BD38B5002000900024002500BF3120C4
:10196000FFF7DBFF05460098401C00900098B0F59B
:10197000A06F01D0002DF2D03120FFF7CEFF08B1CB
:10198000012400E00024204638BD014600209F4A83
:10199000106820F0F80040EAC100106070479E49CE
:1019A0000860704702460020984B586820F47C106D
:1019B00042EA01031843954B586070479649086600
:1019C000704701460020914A506820F00300084308
:1019D000506070478D48406800F00C007047014629
:1019E00000208A4A506820F0F00008435060704799
:1019F00001460020854A506820F4E06008435060AA
:101A0000704701460020814A506820F4605040EA47
:101A1000C1005060704729B17C4A527A02437B4B27
:101A20005A7204E0794A527A8243784B5A7270476C
:101A30007A490860704701460020744A506820F4D3
:101A400040400843506070470021754A11706F4A4A
:101A500082F82010012802D0042808D103E00121D7
:101A60006F4A117004E005216D4A117000E000BF5B
:101A700000BF70476B49086070476449096A0143B9
:101A8000624A11627047674944390860704730B54F
:101A900000210022002400235C4D6D6805F00C013C
:101AA00021B1042905D0082923D105E05E4D056048
:101AB00022E05D4D05601FE0544D6D6805F4701225
:101AC000524D6D6805F48034022505EB92421CB935
:101AD000564D554305600BE04C4D6D6815F4003FC5
:101AE00003D0524D5543056002E04F4D554305600C
:101AF00002E04D4D056000BF00BF444D6D6805F02C
:101B0000F00109094A4D6B5C0568DD4045603F4DB9
:101B10006D6805F4E061090A454D6B5C4568DD4080
:101B200085603A4D6D6805F46051C90A404D6B5CA3
:101B30004568DD40C560354D6D6805F44041890B51
:101B40003C4D6B5CC568B5FBF3F5056130BD29B153
:101B50002E4A526902432D4B5A6104E02B4A5269C6
:101B600082432A4B5A61704729B1284A926902433D
:101B7000264B9A6104E0254A92698243234B9A617D
:101B8000704729B1214AD2690243204BDA6104E04F
:101B90001E4AD26982431D4BDA61704729B11B4A44
:101BA000D2680243194BDA6004E0184AD2688243D3
:101BB000164BDA60704729B1144A12690243134B7D
:101BC0001A6104E0114A12698243104B1A6170478E
:101BD00014494039086070470F49C86470470B4981
:101BE000C87170470948406A40F0807007494862F0
:101BF000704701460020054A92680A4201D0012040
:101C000000E00020704701498872704700100240D0
:101C10000000FFF8FFFFF6FE00004242D8004242FB
:101C2000201002408004424200127A0000093D0068
:101C30005E1400206E14002010B50446FB48844258
:101C400009D101218803FFF7A9FF00214FF480404B
:101C5000FFF7A4FF32E0F648844209D1012148048D
:101C6000FFF7A9FF00214FF40030FFF7A4FF25E0A4
:101C7000F048844209D101218804FFF79CFF00212C
:101C80004FF48020FFF797FF18E0EB48844209D11A
:101C90000121C804FFF78FFF00214FF40020FFF758
:101CA0008AFF0BE0E548844208D101210805FFF7CF
:101CB00082FF00214FF48010FFF77DFF10BD2DE95A
:101CC000F04786B005460E460024A24600BFA14656
:101CD0000027B08900B100BF2F462C8A4CF6FF7058
:101CE0000440F08804432C82AC894EF6F310044083
:101CF000B08831890843718908430443AC81AC8AB8
:101D00004FF6FF400440B0890443AC8201A8FFF7BE
:101D1000BEFEC648874202D1DDF810A001E0DDF822
:101D20000CA0A88910F4004F08D00AEBCA0000EB01
:101D30000A1031684900B0FBF1F807E00AEBCA006D
:101D400000EB0A1031688900B0FBF1F86420B8FBA1
:101D5000F0F004012009642101FB1089A88910F426
:101D6000004F08D0322000EBC900B0FBF1F000F0CA
:101D70000700044308E0322000EB09106421B0FBA7
:101D8000F1F000F00F0004432C8106B0BDE8F087AD
:101D90004FF41651016000218180C18001810C2126
:101DA000418100218181704710B502460020108AD0
:101DB0004FF2FF0318400B884C8823438C88234341
:101DC000CC8823431843108210BD0021018041803C
:101DD0008180C180704721B1828942F400528281A2
:101DE00004E082894DF6FF731A4082817047F0B596
:101DF00003460024002600250020A1F510676A3F55
:101E000000D100BF1846C1F3421401F01F0601279C
:101E100007FA06F5012C01D10C3004E0022C01D1A7
:101E2000103000E014301AB107682F43076002E059
:101E30000768AF430760F0BD1AB1838A0B43838202
:101E400002E0838A8B4383827047028A4FF6F073E5
:101E50001A400282028A0A430282704782894FF244
:101E6000FF731A40828182890A438281704721B1BF
:101E7000828942F00202828104E082894FF6FD737A
:101E80001A4082817047028A4FF6DF731A4002823D
:101E9000028A0A430282704721B1028A42F48042D8
:101EA000028204E0028A4BF6FF731A4002827047F6
:101EB000C1F308028280704701468888C0F3080099
:101EC0007047818941F0010181817047028BD2B254
:101ED0000283028B42EA012202837047028B02F4E2
:101EE0007F420283028B0A430283704721B1828AB8
:101EF00042F02002828204E0828A4FF6DF731A40A9
:101F00008282704721B1828A42F01002828204E00C
:101F1000828A4FF6EF731A408282704721B1828A1B
:101F200042F00802828204E0828A4FF6F7731A4078
:101F30008282704721B1828942F40042828103E0AB
:101F40008289C2F30E028281704721B1828A42F4F3
:101F50000062828204E0828A4FF2FF731A4082821A
:101F60007047828A4FF6FB731A408282828A0A4344
:101F70008282704721B1828A42F00202828204E0AA
:101F8000828A4FF6FD731A40828270470246002013
:101F9000B1F5007F00D100BF13880B4201D00120B2
:101FA00000E00020704701F40072B2F5007F00D11C
:101FB00000BFCA430280704770B502460024002368
:101FC00000250020A1F510666A3E00D100BFC1F3D4
:101FD000421501F01F03012606FA03F3012D02D179
:101FE0009689334006E0022D02D1168A334001E083
:101FF000968A33400C12012606FA04F416883440FF
:1020000013B10CB1012000E0002070BD10B500221A
:102010000023A1F510646A3C00D100BF0A1201241C
:102020009440A3B2DC43048010BD0000003801409E
:102030000044004000480040004C00400050004078
:1020400031490143314A1160704770B500210023C6
:102050000F22C4780CB32D4C246804F4E064C4F55A
:10206000E064210AC1F10403CA40447804FA03F190
:102070008478144021430901254C0678A155047841
:1020800004F01F050124AC4005786D114FF0E026E7
:1020900006EB8505C5F8004109E0047804F01F054A
:1020A0000124AC401B4D0678761145F8264070BDE2
:1020B000194A0A400243154B1B1F1A60704739B179
:1020C000124A121D12680243104B1B1D1A6006E0D3
:1020D0000E4A121D126882430C4B1B1D1A6070477A
:1020E000042808D14FF0E021096941F004014FF0C4
:1020F000E022116107E04FF0E021096921F00401BD
:102100004FF0E022116170470000FA050CED00E08D
:1021100000E400E080E100E080FFFF1F10B504460E
:10212000FE48844208D10121C014FFF737FD002189
:10213000E014FFF733FDC4E0B4F1804F08D1012172
:102140000846FFF738FD00210120FFF734FDB8E015
:10215000F348844208D101210220FFF72CFD002121
:102160000220FFF728FDACE0EE48844208D10121AF
:102170000420FFF720FD00210420FFF71CFDA0E054
:10218000E948844208D101210820FFF714FD00210D
:102190000820FFF710FD94E0E448844208D10121B3
:1021A0001020FFF708FD00211020FFF704FD88E054
:1021B000DF48844208D101212020FFF7FCFC0021E8
:1021C0002020FFF7F8FC7CE0DA48844208D10121A6
:1021D0004014FFF7E3FC00216014FFF7DFFC70E020
:1021E000D548844209D10121C804FFF7D7FC00215A
:1021F0004FF40020FFF7D2FC63E0D048844209D1BD
:1022000001210805FFF7CAFC00214FF48010FFF7F9
:10221000C5FC56E0CA48844209D101214805FFF7B0
:10222000BDFC00214FF40010FFF7B8FC49E0C548A1
:10223000844208D101214020FFF7BDFC002140204D
:10224000FFF7B9FC3DE0C048844208D1012180205D
:10225000FFF7B1FC00218020FFF7ADFC31E0BB4867
:10226000844208D101218015FFF7A5FC0021A015AB
:10227000FFF7A1FC25E0B648844209D101210804FA
:10228000FFF78CFC00214FF48030FFF787FC18E04B
:10229000B048844209D101214804FFF77FFC0021A6
:1022A0004FF40030FFF77AFC0BE0AB48844208D1D2
:1022B00001218804FFF772FC00214FF48020FFF712
:1022C0006DFC10BD00220288944B98420ED0994BB1
:1022D00098420BD0B0F1804F08D0914B984205D076
:1022E000904B984202D0904B984204D14FF68F7396
:1022F0001A404B881A438D4B984207D08C4B98421A
:1023000004D04FF6FF431A40CB881A4302808B88D3
:1023100083850B880385814B98420BD0854B98426F
:1023200008D08B4B984205D08A4B984202D08A4BFA
:10233000984201D10B7A038601238382704770B5DE
:10234000002400220023058C4FF6FE7635400584DC
:10235000028C8388048B4FF68F752C40B51E2C4061
:102360000D882C43751E2A400D892A434D882A4327
:102370006A4DA8420BD06F4DA84208D0744DA842B8
:1023800005D0744DA84202D0734DA84213D14FF628
:10239000F7752A404D892A434FF6FB752A408D88F0
:1023A0002A434FF6FF652B404FF6FF552B408D8992
:1023B0002B43CD892B4383800483CD88858602847B
:1023C00070BD70B5002400220023058C4FF6EF7617
:1023D00035400584028C8388048B48F6FF752C40B9
:1023E0004FF6FF452C400D884FF6FF7606EA05258F
:1023F0002C434FF6DF752A400D8906EA05152A435E
:102400004D8806EA05152A43444DA84202D0494D9D
:10241000A8421DD14FF67F752A404D894FF6FF76B1
:1024200006EA05152A434FF6BF752A408D8806EA4D
:1024300005152A434FF6FF352B404FF2FF752B4011
:102440008D8906EA85052B43CD8906EA85052B4350
:1024500083800483CD880587028470BD70B5002415
:1024600000220023058C4FF6FF6635400584028C60
:102470008388848B4FF68F752C404FF6FC752C406B
:102480000D882C434FF6FF552A400D894FF6FF76F5
:1024900006EA05252A434D8806EA05252A431F4DED
:1024A000A84202D0234DA8421DD14FF2FF752A4009
:1024B0004D894FF6FF7606EA05252A434FF6FF358C
:1024C0002A408D8806EA05252A434EF6FF752B40E3
:1024D0004DF6FF752B408D8906EA05152B43CD89F6
:1024E00006EA05152B4383808483CD888587028483
:1024F00070BD70B5002200230024058C4EF6FF76D7
:1025000035400584038C8488828B48F6FF752A4009
:102510004FF6FF452A400D8820E00000002C0140C6
:102520000004004000080040000C00400010004083
:102530000014004000340140004C014000500140B4
:102540000054014000180040001C004000200040E2
:102550000040014000440140004801404FF6FF7632
:1025600006EA05252A434DF6FF752B400D8906EA3C
:1025700005352B434D8806EA05352B43FA4DA84215
:1025800002D0FA4DA84208D14BF6FF752C408D8938
:102590004FF6FF7606EA85152C4384808283CD882A
:1025A000A0F84050038470BD828B4FF2FF331A4075
:1025B0008283828B4FF6FF7303EA01231A438283DF
:1025C0007047F0B50C461546002200210026078C06
:1025D0004EF6FF7C07EA0C070784828B018C4FF6CE
:1025E000FF7707EA043640F6FF473A404FF6FF7799
:1025F00007EA05273A434FF6FF7707EA03373A43DE
:10260000D94FB8420ED0D94FB8420BD0B0F1804F5D
:1026100008D0D74FB84205D0D64FB84202D0D64FD7
:10262000B84206D14DF6FF77394046F4805739431A
:1026300005E047F6FF57394044F480573943828319
:102640000184F0BD828B4FF6F3731A408283828B34
:102650000A4382837047F0B50C46154600220021DC
:102660000026078C4FF6FF6C07EA0C070784828B65
:10267000018C4FF6FF7707EA04264FF60C773A40B5
:102680004FF6FF7707EA03172F433A43B64FB84296
:102690000ED0B64FB8420BD0B0F1804F08D0B44F37
:1026A000B84205D0B34FB84202D0B34FB84206D1BA
:1026B0004FF6FF57394046F48077394305E04FF233
:1026C000FF57394044F48077394382830184F0BD59
:1026D000028B4FF2FF331A400283028B4FF6FF73D7
:1026E00003EA01231A4302837047F0B50C461546EE
:1026F000002200210026078C4FF6EF7C07EA0C072A
:102700000784028B018C4FF6FF7707EA041640F628
:10271000FF473A404FF6FF7707EA03373A434FF651
:10272000FF7707EA05273A438F4FB8420ED08F4F05
:10273000B8420BD0B0F1804F08D08D4FB84205D0D1
:102740008C4FB84202D08C4FB84206D14FF6DF779B
:10275000394046F01007394305E04FF65F773940BE
:1027600044F01007394302830184F0BD028B4FF619
:10277000F3731A400283028B0A4302837047F0B559
:102780000C46154600220021068C4FF6FE773E408F
:102790000684028B018C4FF60C7632407E1C06EAD2
:1027A00003162E433243704EB0420ED06F4EB042ED
:1027B0000BD0B0F1804F08D06D4EB04205D06D4EB9
:1027C000B04202D06C4EB04206D14FF6FD76314099
:1027D00044F00106314305E04FF6F576314044F010
:1027E0000106314302830184F0BD70B505460C46F5
:1027F0005D4885420ED05D4885420BD0B5F1804FD3
:1028000008D05B48854205D05A48854202D05A48D4
:10281000854200D100E000BF208850B92389A288FA
:1028200061882846FFF7ABFFE1882846FFF79EFF47
:1028300025E0208804280AD12389A28861882846B7
:10284000FFF753FFE1882846FFF742FF17E0208893
:1028500008280AD12389A28861882846FFF7FBFE51
:10286000E1882846FFF7EEFE09E02389A288618807
:102870002846FFF7A6FEE1882846FFF795FE70BDC3
:102880002DE9F04105460C4600260127608808B96D
:10289000022600E00026A088012801D1022700E0DE
:1028A00001272088A0B92389A28861882846FFF7DC
:1028B00066FFE1882846FFF759FF23893A463146EB
:1028C0002846FFF712FFE1882846FFF701FF13E0D3
:1028D0002389A28861882846FFF707FFE1882846F8
:1028E000FFF7F6FE23893A4631462846FFF747FFB1
:1028F000E1882846FFF73AFFBDE8F0810A884B8857
:102900001A438B881A43CB881A430B891A434B8985
:102910001A438B891A43A0F8442070474FF6FF7181
:10292000818000210180C1804180017270470021B7
:10293000018041808180C180018141818181C1818B
:102940007047002101804180012181800021C180E8
:10295000018170470021018041808180C180018117
:102960004181818170470000002C0140003401400A
:102970000004004000080040000C004021B1028823
:1029800042F00102028004E002884FF6FE731A4012
:102990000280704731B1B0F8442042F40042A0F800
:1029A000442005E0B0F84420C2F30E02A0F8442011
:1029B00070471AB183890B43838102E083898B437B
:1029C000838170478182704741EA0203A0F8483052
:1029D00070471AB183890B43838102E083898B435B
:1029E0008381704701894FF6F87211400181704769
:1029F0000A46002101894FF68F7319401143018166
:102A0000704730B504460D4629462046FFF7F0FFD3
:102A1000208940F00700208130BD2DE9F0410446B7
:102A20000D4616461F46602D06D13B460122314613
:102A30002046FFF75AFE05E03B460122314620467C
:102A4000FFF79DFE29462046FFF7D2FF208940F080
:102A500007002081BDE8F08130B50C4600210189D6
:102A6000C9B24FF6FF7505EA0325154325432943EF
:102A7000018130BD2DE9F04105460E4617469846C6
:102A8000002443463A4631462846FFF7E5FF2C89A5
:102A90004FF6F870044044F007044FF68F7004407E
:102AA00044F070042C81BDE8F081F0B504460D4679
:102AB00016461F463B46324629462046FFF7CCFFC6
:102AC000208940F480402081F0BD018582827047DA
:102AD0000A46002101884FF68F7319401143018087
:102AE0007047F0B50C4615461E4600210022002313
:102AF0000189028B038C4FF6F877394021434FF65A
:102B0000FC473A4040F201173A434FF6DD773B402D
:102B10004FF6FF7707EA06172F433B4301810283F5
:102B20000384F0BD0A460021018B4FF68F731940D4
:102B30001143018370470A460021018B48F6FF7359
:102B400019404FF6FF7303EA0223194301837047CC
:102B50000A460021818B4FF68F7319401143818300
:102B600070470A460021818B48F6FF7319404FF6E3
:102B7000FF7303EA022319438183704721B102885E
:102B800042F08002028004E002884FF67F731A4010
:102B90000280704721B1828842F00402828004E002
:102BA00082884FF6FB731A408280704721B1828879
:102BB00042F00802828004E082884FF6F7731A40E0
:102BC0008280704721B1828842F00102828004E055
:102BD00082884FF6FE731A40828070470A460021B1
:102BE000018B4FF6F77319401143018370470A4672
:102BF0000021018B4FF2FF7319404FF6FF7303EA78
:102C000002231943018370470A460021818B4FF646
:102C1000F77319401143818370470A460021818B65
:102C20004FF2FF7319404FF6FF7303EA0223194373
:102C3000818370470A460021018B4FF6FB731940D0
:102C40001143018370470A460021018B4FF6FF3381
:102C500019404FF6FF7303EA0223194301837047BB
:102C60000A460021818B4FF6FB7319401143818383
:102C700070470A460021818B4FF6FF3319404FF60B
:102C8000FF7303EA02231943818370470A46002138
:102C9000018B4FF67F7319401143018370470A4639
:102CA0000021018BC1F30E014FF6FF7303EA0223EB
:102CB0001943018370470A460021818B4FF67F73C9
:102CC00019401143818370470A460021818BC1F36B
:102CD0000E014FF6FF7303EA022319438183704705
:102CE0000A460021018C4FF6FD73194011430184FF
:102CF00070470A460021018C4FF6F77319401143C3
:102D0000018470470A460021018C4FF6DF73194099
:102D10004FF6FF7303EA02131943018470470A4612
:102D20000021018C4FF67F7319404FF6FF7303EAC1
:102D300002131943018470470A460021018C4FF6A3
:102D4000FF5319404FF6FF7303EA0223194301842E
:102D500070470A460021018C4FF2FF7319404FF66D
:102D6000FF7303EA02231943018470470A460021D6
:102D7000018C4DF6FF7319404FF6FF7303EA0233DF
:102D800019430184704730B5002301248C40A3B25D
:102D9000048C9C430484048C02FA01F5ADB22C43EC
:102DA000048430BD30B5002304248C40A3B2048CCD
:102DB0009C430484048C02FA01F5ADB22C430484D4
:102DC00030BD70B503460020002418461830012598
:102DD0008D40ACB21D8CA5431D8409B1082909D1D1
:102DE00000EB6100056825F0700505600568154376
:102DF00005600EE00D1FC5F34E052844056825F457
:102E0000E045056005684FF6FF7606EA0226354381
:102E1000056070BD21B1028842F00202028004E028
:102E200002884FF6FD731A400280704721B1028874
:102E300042F00402028004E002884FF6FB731A405D
:102E40000280704721B1828842F08002828004E0D3
:102E500082884FF67F731A408280704702884FF64F
:102E6000F7731A40028002880A4302807047828802
:102E70004FF68F731A40828082880A43828070479F
:102E800002894FF6F8731A40028102890A430281CF
:102E9000704702894FF67F731A40028102890A4304
:102EA00002817047818470478185704781867047B1
:102EB0000187704781877047A0F8401070470288EB
:102EC0004FF6FF431A40028002880A43028070478F
:102ED0000146888E70470146088F70470146888FEB
:102EE00070470146B1F8400070470146888C704732
:102EF0000146088D704702460020138A0B4201D01C
:102F0000012000E000207047CA430282704730B5BC
:102F10000246002000230024158A05EA0103958952
:102F200005EA010413B10CB1012000E0002030BD1E
:102F3000CA43028270470000002044490860091D0E
:102F40000860091D0860091D086041483F491431A7
:102F50000860704700213D498279002A3AD00A462C
:102F6000126803689A430B461A600A1D12680368C8
:102F70009A430B1D1A60027911440A6803681A43C8
:102F80000A60324A0832126803689A432F4B0833AA
:102F90001A601A1D126803689A432C4B0C331A608E
:102FA0004279102A0ED11A1F126803681A43274B60
:102FB00008331A601A1D126803681A43234B0C3336
:102FC0001A600DE02149427911440A6803681A43E6
:102FD0000A6005E0027911440A6803689A430A60AE
:102FE00070470021016001710C2141710021817144
:102FF00070471649103109680143144A10321160B4
:10300000704701460020114A143212680A4201D06A
:10301000012000E0002070470C491431086070471F
:10302000014600200022094B1B6803EA0102074BFE
:1030300014331B680B4202D00AB1012000E00020CB
:1030400070470249143108607047000000040140D5
:10305000FFFF0F007CB51D4616460C00009001D006
:103060002044401E074B7B442A4669460190304667
:1030700000F0A9FC05461CB10020694600F0B6FC32
:1030800028467CBD8D0900000FB41CB5084B06AA6C
:103090007B4469460090059800F095FC04460020AA
:1030A000694600F0A3FC20461CBC5DF814FB000040
:1030B0005909000070B5044685690068C10601D54C
:1030C000302600E02026C00708D070BDD4E90121D9
:1030D00030469047206A00F1010020626D1EF5D550
:1030E00070BD70B5044685690078C00708D170BD11
:1030F000D4E9012120209047206A00F101002062DC
:103100006D1EF5D570BD00002DE9F0410646002486
:1031100010687529314616A511D000F093F90028E2
:1031200003DAC0F1000013A507E031688A0701D572
:1031300011A502E0490704D510A5012401E000F023
:103140008AF900210A2306F1240707E0B0FBF3F215
:1031500003FB1200303078541046491C0028F5D18A
:1031600023462A463046BDE8F04100F0A6B90000EB
:10317000000000002D0000002B00000020000000D7
:10318000F0B40D460188090502D5234C7C4402E0C9
:10319000214C7C440E34002100F124060BE002F0A7
:1031A0000F074FEA1212E75D42EA03724FEA131368
:1031B000775401F1010152EA0307F0D102780023AC
:1031C000120704D5702D06D009B11134022322460E
:1031D000F0BC00F072B910340123F8E770B5044672
:1031E0000D462146106800F036F902462946204671
:1031F000BDE870400023C3E7D21D22F00703D3E9E6
:103200000023BDE70368126843F02003036008232E
:10321000C3610023B4E70000682D00002DE9F05FD2
:10322000894604464FF0000ADFF878B1FB44C0F845
:1032300020A02046E1688847002875D0252806D0C0
:10324000D4E901219047206A401C2062F1E7002662
:103250005F462046E16888472028054608DB312D77
:1032600006D207EB050010F8200C08B10643F0E782
:10327000B00701D526F00406C4F81CA00027C4F846
:1032800018A02A2D09D0284601F021FA38B304EB02
:103290008708303DC8F8185019E059F8041B20463B
:1032A00004EB87029161E1688847012F054618D138
:1032B000E069002820DA26F020061DE0D8F8180082
:1032C00000EB800005EB40003038C8F818002046BD
:1032D000E1688847054601F0FAF90028EED1012F90
:1032E0000AD02E2D08D12046E16888477F1C05466C
:1032F000022F46F02006C4DBA069002803DA404212
:1033000046F00106A061F00701D026F010066C2DF2
:103310000BD0682D09D04C2D39D06A2D35D0742DA5
:1033200035D07A2D33D016E038E0E1682F462046BC
:103330008847B842054609D16C2F26D04FF48060EB
:10334000E168064320468847054604E06C2F1AD002
:103350004FF4807006430DB3A5F14100192802D83F
:10336000203546F400664A462946204626604E46E9
:10337000FCF738FF80B101280BD0F61D26F00700BE
:1033800000F1080955E74020E4E78020D8E7002055
:10339000D6E706F104094CE7284651E7206ABDE864
:1033A000F09F0000F02C00000B4910B5A1F17C0249
:1033B0000A4CC2E93712372106E000EB104342F80D
:1033C0002130074B00FB03400B1EA1F10101F4DC8F
:1033D00010BD0120E8E70000C4190020E119D666FD
:1033E000CD0D010040EA0103024630B59B0710D124
:1033F0004FF0013400E008C208C91D1B9D4315EAC7
:10340000C41FF8D013F0FF0102F8011B0DD01B0AF6
:10341000F8E711F8013B002B02F8013B05D011F849
:10342000013B002B02F8013BF3D130BD70477047E0
:103430007047000010B500F0C1FB001D10BD00BFBB
:103440009D12000009684A0501D540B27047C905C0
:10345000FCD500B2704709684A0501D5C0B2704773
:10346000C905FCD580B2704770B50C460546012AE7
:1034700005D02878800600D5EA69002302E0012300
:1034800005E05B1C934202D2E05C0028F9D1A869F8
:10349000E618C01AA861286A184428622846FFF76F
:1034A00009FE04E0D5E9012114F8010B9047B4426C
:1034B000F8D32846FFF715FE70BD2DE9F0470D46FD
:1034C00099469246044600F124080168880604D50E
:1034D000E06921F01001216000E00120A84202DD36
:1034E000A0EB050700E00027A16907EB050202EB4E
:1034F0000900A1EB0000A0612078C00602D420469C
:10350000FFF7D8FD002608E0D4E901211AF80600EB
:103510009047206A401C761C20624E45F4DB2078E0
:10352000C0060AD52046FFF7C5FD06E0D4E9012113
:1035300030209047206A401C2062381EA7F1010706
:10354000F4DC07E0D4E9012118F805009047206A6F
:10355000401C2062281EA5F10105F3DC2046FFF780
:10356000C0FD2078000602D50220BDE8F0870120CA
:10357000FBE711680268006A530501D508700BE08B
:10358000D30501D5088007E0130603D5C217C1E9AA
:10359000000201E0520608600120704770472DE9E3
:1035A000FF4F0C461E464FF0FF378BB0D2E90001AB
:1035B000DDF860800A908A46C1F30A5505B93D4698
:1035C000002108464FF00000BAF1000F00F440005F
:1035D00005DA00EB80004FF4400101EA50004FEAA9
:1035E0009059B9F1010F00DDB9460A9850EA4A0036
:1035F0000ED044F61050A5F2FF3545432F14B8F114
:10360000000F1ED07542291E1EDDC9F100021CE00C
:10361000B8F1010F4FF0000001D0302103E0F24378
:1036200005E02154401CB042FBDB30460022002163
:1036300021540B99C1F80880C1E900200FB0BDE802
:10364000F08FBD1B6D1CDEE74A4600DA694206A812
:1036500000F06AFB06AB07CB03AB07C350460A99E1
:1036600000F066FC8DE80700A0F500501F380090C0
:103670000398002D09DD42F21F014A46084403A9C0
:103680000390684600F0C5FE08E0A0F500504A46E9
:103690001F3803A90390684600F0CFFE8DE80700AD
:1036A0000004000C03D04FF0FF30410800E010464A
:1036B000B8F1000F03D00022009215461FE0751EDE
:1036C00006D400F07FFA02F1300262556D1EF8D583
:1036D000B3460122084302D000227F1C04E0207878
:1036E000302801D100227F1E002A099787D01DE0D3
:1036F000112D07DA00F066FA303262556D1C50EA7F
:103700000102F5D108430FD10021681E05E0235CBA
:10371000625C6354491C2254401E8142F7DBAB4675
:10372000A81B401E099001E0009848B1002004F851
:103730000B000B98099AC0F80880C0E9002B7DE7C0
:1037400011264FF000085AE72DE9F04F884604464D
:10375000D21D22F0070191B0D1E90001CDE90A01A3
:1037600000F0A1FF02460B98C00F01D02D2007E00A
:103770002068810701D52B2002E0202101EAC0004A
:10378000032A099001D0072A05DB0346414620465B
:1037900000F05EFA0FE12078800601D5E06900E0D4
:1037A0000620B8F1650F814606D0B8F1660F18D033
:1037B000B8F1670F72D132E00020B9F1110F00901B
:1037C00001DB112301E009F101030AAA01A90CA8F8
:1037D000FFF7E5FEDDE90C70002609F101058346DF
:1037E00048E001204B4600904FF000470AAA01A98B
:1037F0000CA8FFF7D4FEDDE90DB00C995D4600265C
:1038000018B909F1010001EB0005B9EB050003D47B
:10381000C0F1FF3609F10105A5EB09002BE0B9F174
:10382000010F01DA4FF001090020B9F1110F0090EA
:10383000484601DD112300E003460AAA01A90CA8AD
:10384000FFF7ADFEDDE90C704D460026834620787B
:1038500000070AD4AB4500DA5D4601A8012D04DD5E
:10386000411911F8011C302907D04F4502DA17F130
:10387000040F04DA0120824610E06D1EEEE7002FEF
:1038800002DCED1B3E4403E0781CA84200DD054647
:10389000A7EB060000F1010A4FF00047207800076F
:1038A00003D4AA4501DB4FF0FF3A0021B7F1004FE6
:1038B0000DF143088DF8431023D002202B23002F55
:1038C00001DA7F422D234FF00A0C011EA0F1010006
:1038D00000DC4FB197FBFCF10CFB11720F4602F1BB
:1038E000300208F8012DF0E7A8F1010003702188EB
:1038F000090501D5452100E06521A0F1010800F886
:10390000011C09980FA9A1EB080707F1070700B1EF
:10391000012000EB050101EBEA70A1693844A1EB3D
:103920000000A0F10100A0612078C00602D420466A
:10393000FFF7C0FB099830B1D4E901219047206A14
:1039400000F1010020622078C00620D52046FFF754
:10395000B1FB1CE0002E04DBB34502DD01A8805D55
:1039600000E03020D4E901219047206A761C401CF9
:10397000BAF1010A20620AD100F020F9C06801689A
:10398000405CD4E901219047206A401C2062281E37
:10399000A5F10105DEDC07E0D4E9012118F8010BEF
:1039A0009047206A401C2062381EA7F10107F3DC13
:1039B0002046FFF796FB022011B040E601694A1C41
:1039C00002610878704700B58FB0CDE90131002160
:1039D000059105497944CDE9031011466846FFF782
:1039E0001DFC0FB000BD0000E5FFFFFF0A6802F8F4
:1039F000010B0A607047D1E900239A4202D2531C9E
:103A00000B601070704700002DE9FF5F15468A4675
:103A10000446DFF8AC80F8440027D8E900103E46A1
:103A2000CDE9001011E03AF816106A4602A800F03D
:103A3000EDF9411C07D02178890603D5E2693918D0
:103A400091420ED8074406F101062078800602D57F
:103A5000E069B84205DDAE42E5DB3AF81600002821
:103A6000E1D1A069C01BA0612046FFF723FBD8E984
:103A70000010CDE90010002016E03AF818106A4650
:103A800002A800F0C3F98146401C0BD000250DF1BF
:103A9000080B05E0D4E901211BF8050090476D1CD7
:103AA0004D45F7D308F10100B0428046E5DB206ABE
:103AB000384420622046FFF714FBBDE8FF9F00005A
:103AC0001A2500002DE9F0418046D21D22F00702A0
:103AD0000025D2E90002F52914A612D0002A06DA40
:103AE0000023D0EB030063EB020211A608E0D8F834
:103AF00000108B0701D50FA602E0490701D50EA6DD
:103B000001251146002408F1240704E000F05AF8CA
:103B100030323A55641C50EA0102F7D12B46324646
:103B200021464046BDE8F041FFF7C7BC0000000059
:103B30002D0000002B0000002000000030B4002108
:103B400000F124040CE002F0070505F130054FEA0E
:103B5000D20242EA4372655401F101014FEAD303F4
:103B600052EA0305EFD10468002310A2250708D507
:103B700004F020040C4304D0C46901230CA2641E89
:103B8000C46130BCFFF799BC10B5044621461068EB
:103B9000FFF761FC02462046BDE810400023CDE758
:103BA000D21D22F00701D1E90023C7E70000000081
:103BB00030000000004870472C1A00200048704771
:103BC0004C1A002030B5B0F10A024FEA900E71F1A4
:103BD00000034EEA817EB0EB0E0061EB91014FEAEB
:103BE000101E4EEA017E10EB0E0041EB11114FEA60
:103BF000102E4EEA016E10EB0E0041EB11214FEA40
:103C0000104E4EEA014E10EB0E0041EB11414018F0
:103C100041F100014FEAD00040EA41704FEAD10182
:103C200010EB80054FEA810444EA907444EB0104F0
:103C30006D1944EB0404521BA3414FF0000348BF2D
:103C40000A3200D530BD401C41F1000130BD0000FA
:103C50002DE9F0411F46044603260168072A01F4B6
:103C6000006004DB08B116A505E016A503E008B165
:103C700015A500E015A521F010002060A069C01E68
:103C8000A0610FB1401EA0612046FFF713FA4FB1AB
:103C9000D4E9012138469047206A401C2062C01CAC
:103CA000206206E0206AFAE7D4E9012115F8010B49
:103CB0009047761EF8D22046FFF713FABDE8F08150
:103CC0004E414E006E616E00494E4600696E6600C0
:103CD00010B5436913B1AFF3008001E0FFF7C4FBF7
:103CE000012010BD127800F124010A7000224A70F0
:103CF0000122EDE711684FF0FF32E9E710B54369A3
:103D000013B1AFF3008001E0FFF77EFE012010BD8C
:103D1000128800F1240182840022C2840122EDE78E
:103D200011684FF0FF32E9E72DE9F047814616466A
:103D30008AB035487844D0E9002380680092CDE904
:103D40000130314878440C38D0E9022300690392ED
:103D50004FF03702CDE9043041F69B30014491FB2E
:103D6000F2F0A0F1800502FB10141B3C02D5644266
:103D7000012000E00020DFF890A080460027FA44F0
:103D8000AAF1C60A0DE0E00709D03246684607EB03
:103D900047010AEB810100F050FB8DE80700641039
:103DA0007F1C002CEFD1184F7F44B43F17E0E80789
:103DB00013D007EB04100DF1180A90E80E00AAE8E2
:103DC0000E00C068F04201D198190890324606A949
:103DD00003A800F032FB03AB07C36D10641C002D79
:103DE000E5D132466946B8F1000F03A802D000F0D1
:103DF00010FB01E000F021FBC9E90001C9F808202F
:103E00000AB0BDE8F08700008022000070B51646B9
:103E10000C460546FFF70EFB036893F801010128E5
:103E200006D0FF2C0FD8185D68B101202C7070BD32
:103E3000D3F807013246214603442846BDE87040C6
:103E400003F2071318474FF0FF3070BD70477546F7
:103E5000FFF7B0FEAE4605006946534620F0070066
:103E6000854618B020B5FDF757FBBDE820404FF060
:103E700000064FF000074FF000084FF0000B21F054
:103E80000701AC46ACE8C009ACE8C009ACE8C00921
:103E9000ACE8C0098D4670470446AFF30080204669
:103EA000FCF705FA4FF0013C50F8042B51F8043BA5
:103EB0009A4221D1A2EB0C03934313EACC1317D1FE
:103EC00050F8042B51F8043B9A4215D1A2EB0C0395
:103ED000934313EACC130BD150F8042B51F8043B55
:103EE0009A4209D1A2EB0C03934313EACC13DBD023
:103EF0004FF00000704700BFD01A01BAB1FA81F14B
:103F000001F0180122FA01F0CB40C1F12001DBB22F
:103F1000C0B2C01A2CFA01F3D11A914311EAC311AD
:103F2000E6D1704701491820ABBEFEE7260002002B
:103F30005FEA400C08BF91F0000F4FEA8C234FEA74
:103F4000C12243EA51514FEA1C5018BF00F5F0401E
:103F50004FEA300018BF41F000415FEA6C5C00F0AE
:103F60002980BCF1FF3F08BF40F080407047130C30
:103F700006BF12044FF0100C4FF0000C130E04BFDC
:103F800012020CF1080C130F04BF12010CF1040C07
:103F9000930F04BF92000CF1020CD30F04BF520028
:103FA0000CF1010C11464FF00002A0F11F00A0EB34
:103FB0000C00704711F0004F08BF704731F000410E
:103FC0003FF4D5AF0B0C06BF09044FF0100C4FF0B7
:103FD000000C0B0E04BF09020CF1080C0B0F04BF00
:103FE00009010CF1040C8B0F04BF89000CF1020CC9
:103FF000CB0F04BF49000CF1010CCCF12003A0EB66
:104000000C0022FA03F302FA0CF241EA030100F178
:104010000100704720F07F4C80EA030023F07F47C7
:10402000ACEB070303F57C5300F0004003F1FF0302
:104030002DE980494FEA154B09B44FEA144325EAAC
:104040000B4E24EA03480FF2042606EB1327490817
:104050003E785FEA320203FB0667C7F5000707FBFD
:1040600006F64FEA54374FEAD64606F1020607FB3A
:10407000066CCCF1005C4FEA1C472CEA074C07FBAE
:1040800006F40CFB06F504EB15464FEA961634BF12
:1040900000204FF000404FEAD13706FB07FC4FEA03
:1040A0001C4C0CFB0BF7D21B03FB0CF761EB07015D
:1040B0000CFB0EF7B0EB074072EB17420CFB08F756
:1040C00034BFA2EB0742B2EB074261EB17414FEA64
:1040D0000C444FEA910706FB07FC4FEA1C4C0CFB13
:1040E0000BF7B0EBC74072EB573203FB0CF734BF52
:1040F000A2EBC742B2EBC74261EB57310CFB0EF7A4
:10410000B0EBC70072EB57720CFB08F734BFA2EBA1
:10411000C702B2EBC70261EB5771039F4FEA81619F
:1041200041EA921104EBCC044FEAD1374FEA8262A4
:1041300006FB07FC42EA90124FEA80604FEA1C4CF3
:104140000CFB0BF7D21B03FB0CF761EB07010CFB1D
:104150000EF7B0EB074072EB17420CFB08F734BFC9
:10416000A2EB0742B2EB074261EB17414FEA8C55D5
:104170004FEA910704EB9C2406FB07FC4FEA1C4C1A
:104180000CFB0BF7B0EBC74072EB573203FB0CF79D
:1041900034BFA2EBC742B2EBC74261EB57310CFB15
:1041A0000EF7B0EBC70072EB57720CFB08F734BF89
:1041B000A2EBC702B2EBC70261EB577115EB4C25BE
:1041C0004FEA816141EA92114FEA82624FEAD137A8
:1041D00042EA901206FB07FC44F100044FEA8060BB
:1041E0004FEA1C4C0CFB0BF7D21B03FB0CF761EBEB
:1041F00007010CFB0EF7B0EB074072EB17420CFB0C
:1042000008F734BFA2EB0742B2EB074261EB17415C
:1042100015EB1C154FEA813141EA92414FEA823297
:1042200042EA90424FEA80304FEA0C7644F10004B3
:1042300048EA03434EEA0B484FF0000EB2EB080C7D
:1042400071EB030724BF624639464EEB0E0E4FF06A
:10425000000B0018524149414BEB0B0BB2EB080C21
:1042600071EB03077BF1000B24BF624639464EEB2E
:104270000E0E4FF0000B0018524149414BEB0B0B57
:10428000B2EB080C71EB03077BF1000B24BF624615
:1042900039464EEB0E0E51EA020718BF46F00106F2
:1042A00016EB0E7655F1000254F1000103D5BDE87E
:1042B0008901BDE80088BDE88901BDE80048B6195C
:1042C000524141EB0101A3F10103704780807F7EE1
:1042D0007D7C7B7A7978777676757473727171707C
:1042E0006F6E6E6D6C6C6B6A6A696868676666652E
:1042F0006464636362616160605F5F5E5E5D5D5CBC
:104300005C5B5B5A5A59595858575756565555552C
:104310005454535352525251515050504F4F4F4E8C
:104320004E4D4D4D4C4C4C4B4B4B4A4A4A494949DA
:10433000484848474747474646464545454444441C
:10434000444343434342424242414141002B26D42D
:10435000770021D01CB54FEA370703B44FF01000A7
:104360004FF010014FF000000FBCBDE810400BF102
:10437000010BBBF1010F08BF5FEA170722BF12F163
:10438000010211F101014FF0004143F1000300F07F
:10439000004043EA00007047F9D35708DAE746EADD
:1043A000064613F1400F4FEA16461FDD13F1200FAA
:1043B000DFBF16430A46002120335B42C8D0C3F159
:1043C000200746EA064602FA07F74FEA164646EA8B
:1043D0000706C3F1200722FA03F201FA07F721FAD0
:1043E00003F14FF0000342EA0702B1E746EA020692
:1043F00046EA06464FEA164646EA0106BCBF46EACA
:104400000646360C4FF000034FF000024FF000015B
:104410009EE72DE9C048934630B491E8380007C8BC
:1044200031EA400C48BF34EA430C03D5FFF7F2FDF4
:10443000FFF78CFFF0BCBDE800882DE9C04893462B
:1044400030B491E8380007C810F0804F08BF13F06F
:10445000804F03D100F005F8FFF778FFF0BCBDE80E
:10446000008820F07F4780EA030023F07F4C07EBB1
:104470000C03A3F57C5300F00040A3F1FE0392F07F
:10448000000F00F0B38095F0000F00F077802DE969
:1044900001494FEA11404FEA144621EA004800FB67
:1044A00006FC24EA064708FB06F607FB08F800FBB3
:1044B00007F718EB06484CEB164C4FEA124B18EB7B
:1044C00007484FEA15464CEB174022EA0B4E0BFB10
:1044D00006FC25EA06470EFB06F607FB0EFE0BFB65
:1044E00007F71EEB064E4CEB164C4FF000061EEB8A
:1044F000074E4CEB174B18EB0B0840F1000018EB84
:104500000E0B58EB000840F100008F1A4FF000012D
:104510003CBFC943661B14BFB5EB040C00213CBF74
:10452000C943F61B4FEA17444EEA8E0E27EA0445AC
:104530004FEA1C4704FB07622CEA074C05FB07F710
:104540000CFB05F604FB0CFC16EB074642EB17428E
:1045500016EB0C4642EB1C421BEB060658EB020224
:10456000414146EA9E0601D5BDE80189B61952418E
:1045700041EB0101A3F10103BDE801894FEA1445B4
:104580004FEA114724EA054621EA074C05FB07F4E8
:1045900006FB07F70CFB06F105FB0CFC11EB0741D2
:1045A00044EB17444FEA124711EB0C4144EB1C4417
:1045B00022EA074C05FB07F206FB07F70CFB06F6A1
:1045C00005FB0CFC16EB074642EB174216EB0C46BC
:1045D00042EB1C456A1854F1000148BF7047B619F8
:1045E000524141EB0101A3F10103704795F0000F27
:1045F00037D04FEA11424FEA144721EA024624EA33
:10460000074C02FB07F106FB07F70CFB06F402FB65
:104610000CFC14EB074441EB17414FEA154714EB30
:104620000C4441EB1C4125EA074C02FB07F506FB55
:1046300007F70CFB06F602FB0CFC16EB074645EBF6
:10464000174516EB0C4645EB1C42121951F10001BF
:1046500048BF7047B619524141EB0101A3F1010374
:1046600070474FEA14454FEA114724EA054621EA0C
:10467000074C05FB07F106FB07F70CFB06F24FF0B2
:10468000000605FB0CFC12EB074241EB174112EB55
:104690000C4251EB1C4148BF7047921841EB01019D
:1046A000A3F101037047490050EAC12018BF04205C
:1046B0004A0D18BF40F0010040F2FF72B2EB515FAB
:1046C00008BF40F00200012808BF052070473038BD
:1046D0000A2801D2012070470020704710B5002938
:1046E0000AD00878002807D005487844FFF7DAFB9D
:1046F000002801D0002010BD0248784410BD000001
:1047000006190000FE18000010B500290AD008782C
:10471000002807D005487844FFF7C4FB002801D0E3
:10472000002010BD0248784410BD0000EA190000C6
:10473000E2190000FFF708B80000000000000000C8
:1047400000000000000000003F40000000000000EA
:1047500000003000400030004000000009000BC0A5
:104760003D000BC03D00090018C024407FE02240FE
:1047700031800000180024C01B000D8032400180F1
:1047800003801C4027401C80074000401000600050
:1047900000000000000000000000000000001F807A
:1047A000204040200000402020401F8000000000EA
:1047B000090006001F800600090000000400040034
:1047C0003F800400040000000010006000000000B2
:1047D00000000000040004000400040004000000C5
:1047E000000000400000000000000000002001C0A8
:1047F00006003800400000001F802040204020407C
:104800001F800000000010403FC00040000000007A
:1048100018C0214022402440184000001080204051
:10482000244024401B80000002000D0011003FC006
:10483000014000003C8024402440244023800000AC
:104840001F802440244034400380000030002000BA
:1048500027C03800200000001B8024402440244052
:104860001B8000001C0022C0224022401F8000004C
:1048700000000000084000000000000000000000F0
:104880000460000000000000000004000A001100A5
:1048900020804040090009000900090009000000CB
:1048A00000004040208011000A0004001800200091
:1048B00023402400180000001F802040274029408A
:1048C0001F400000004007C039000F0001C0004039
:1048D00020403FC0244024401B8000001F80204017
:1048E000204020403080000020403FC02040204039
:1048F0001F80000020403FC024402E4030C00000F8
:1049000020403FC024402E00300000000F001080E7
:10491000204022403380020020403FC004000400B9
:104920003FC02040204020403FC0204020400000A9
:104930000060202020203FC02000200020403FC0F9
:1049400024400B0030C0204020403FC020400040A9
:10495000004000C03FC03C0003C03C003FC000001E
:1049600020403FC00C4023003FC020001F8020405B
:10497000204020401F80000020403FC024402400F1
:10498000180000001F802140214020E01FA00000EF
:1049900020403FC02440260019C0004018C02440D9
:1049A0002440224031800000300020403FC02040A1
:1049B0003000000020003F80004000403F80200089
:1049C00020003E0001C0070038002000380007C06A
:1049D0003C0007C038000000204039C0060039C044
:1049E000204000002000384007C038402000000070
:1049F000304021C02640384020C0000000000000A8
:104A00007FE0402040200000000070000C00038088
:104A1000004000000000402040207FE00000000037
:104A200000002000400020000000000000100010E6
:104A300000100010001000100000000040000000F6
:104A400000000000000002800540054003C0004057
:104A500020003FC0044004400380000000000380A9
:104A6000044004400640000000000380044024404D
:104A70003FC00040000003800540054003400000A7
:104A8000000004401FC0244024402000000002E039
:104A9000055005500650042020403FC0044004004B
:104AA00003C000400000044027C000400000000098
:104AB00000100010041027E00000000020403FC05C
:104AC0000140070004C00440204020403FC0004097
:104AD0000040000007C0040007C0040003C000003D
:104AE000044007C00440040003C0004000000380ED
:104AF0000440044003800000041007F00450044008
:104B000003800000000003800440045007F0001000
:104B1000044007C0024004000400000000000640FA
:104B20000540054004C00000000004001F80044050
:104B300000400000040007800040044007C000401F
:104B40000400070004C0018006000400060001C044
:104B5000070001C006000000044006C0010006C0B6
:104B6000044000000410071004E001800600040067
:104B70000000044005C006400440000000000000A2
:104B800004007BE040200000000000000000FFF077
:104B900000000000000040207BE004000000000056
:104BA0004000800040002000200040000000000085
:104BB00000000000000000000000000000000000F5
:104BC00000001FCC000C00000000000000000800E6
:104BD000300060000800300060000000022003FC8C
:104BE0001E20022003FC1E200220000000000E18E0
:104BF00011043FFF10840C78000000000F001084A7
:104C00000F3800C0077818840078000000780F84FF
:104C100010C411240E9800E4008400080800680005
:104C20007000000000000000000000000000000014
:104C3000000007E0181820044002000000004002B5
:104C40002004181807E000000000000002400240A5
:104C500001800FF0018002400240000000800080CF
:104C600000800FF800800080008000000001000D2F
:104C7000000E0000000000000000000000000080A6
:104C80000080008000800080008000800000000C18
:104C9000000C000000000000000000000000000602
:104CA000001800600180060018002000000007F0D6
:104CB000080810041004080807F0000000000804A9
:104CC00008041FFC000400040000000000000E0C9B
:104CD00010141024104411840E0C000000000C1855
:104CE00010041104110412880C700000000000E090
:104CF0000320042408241FFC0024000000001F9847
:104D0000108411041104108810700000000007F0D6
:104D100008881104110418880070000000001C00AD
:104D2000100010FC13001C001000000000000E38E2
:104D300011441084108411440E3800000000070054
:104D4000088C10441044088807F0000000000000A0
:104D50000000030C030C0000000000000000000035
:104D600000010106000000000000000000000080BB
:104D70000140022004100808100400000220022054
:104D80000220022002200220022000000000100465
:104D900008080410022001400080000000000E00FE
:104DA0001200100C106C10800F00000003E00C18B3
:104DB00013E4142417C4082807D000000004003CA2
:104DC00003C41C40074000E4001C000410041FFC46
:104DD0001104110411040E880070000003E00C1887
:104DE00010041004100410081C10000010041FFC14
:104DF000100410041004080807F0000010041FFC41
:104E00001104110417C410040818000010041FFC3A
:104E10001104110017C010000800000003E00C1876
:104E20001004100410441C780040000010041FFC03
:104E300010840080008010841FFC10040000100407
:104E400010041FFC10041004000000000003000107
:104E5000100110011FFE10001000000010041FFCC4
:104E6000110403801464181C1004000010041FFCBB
:104E70001004000400040004000C000010041FFCD7
:104E80001F0000FC1F001FFC1004000010041FFC8A
:104E90000C04030000E010181FFC100007F00808C5
:104EA000100410041004080807F0000010041FFC90
:104EB00010841080108010800F00000007F0081888
:104EC00010241024101C080A07F2000010041FFC14
:104ED0001104110011C011300E0C000400000E1C52
:104EE00011041084108410441C38000018001000B5
:104EF00010041FFC100410001800000010001FF820
:104F000010040004000410041FF8100010001E001C
:104F100011E0001C007013801C0010001FC0103C2A
:104F200000E01F0000E0103C1FC000001004180C3F
:104F3000163401C001C01634180C100410001C00F7
:104F4000130400FC13041C00100000000804101CD3
:104F50001064108413041C041018000000000000EA
:104F600000007FFE400240024002000000003000CE
:104F70000C0003800060001C0003000000004002E1
:104F8000400240027FFE0000000000000000000020
:104F9000200040004000400020000000000100010F
:104FA00000010001000100010001000100004000BB
:104FB00040002000000000000000000000000098F9
:104FC000012401440144014400FC000410001FFCC2
:104FD00000880104010400880070000000000070D7
:104FE0000088010401040104008800000000007032
:104FF00000880104010411081FFC0004000000F8EF
:10500000014401440144014400C8000000000104BF
:1050100001040FFC1104110411001800000000D657
:1050200001290129012901C90106000010041FFC02
:10503000008401000100010400FC000400000104E0
:10504000190419FC00040004000000000000000323
:1050500000010101190119FE0000000010041FFCED
:105060000024004001B4010C010400000000100401
:1050700010041FFC0004000400000000010401FCF7
:105080000104010001FC0104010000FC010401FC19
:10509000008401000100010400FC0004000000F88D
:1050A000010401040104010400F80000010101FFF2
:1050B00000850104010400880070000000000070F9
:1050C000008801040104010501FF0001010401043D
:1050D00001FC00840104010001800000000000CCFC
:1050E0000124012401240124019800000000010092
:1050F000010007F80104010400000000010001F8AC
:10510000000400040004010801FC00040100018007
:105110000170000C001001600180010001F0010C21
:10512000003001C00030010C01F00100000001045A
:10513000018C00740170018C0104000001010181E7
:105140000171000E0018016001800100000001845F
:10515000010C013401440184010C00000000000036
:105160000000000001003EFC400240020000000080
:1051700000000000FFFF00000000000000004002EF
:1051800040023EFC01000000000000000000600042
:10519000800080004000400020002000000000004F
:1051A00000000000000000000000000000000000FF
:1051B00000000000000000000000000000000000EF
:1051C0000000000000000000000000000000000FD0
:1051D00080380FFE380F803800000000000000000B
:1051E00000000000000000000000010000060000B8
:1051F0000C00003800003100000600000C000038F0
:105200000000300000000000000000006180006726
:10521000F807F98000618000618000618000618092
:105220000067F807F98000618000000000000000BE
:10523000000001C0E003E0F00630080418081FFF7A
:10524000FE040E080787F00381E000000000000064
:1052500001F000060C00040408060C7001F9C000FF
:105260000E00003BE000EC18070808040C180003CF
:10527000E00000000001E00007F003F818041C083B
:1052800004170807E1D003C0E00023B0003C080089
:1052900020080000100000000000000100003100A4
:1052A000003200001C0000000000000000000000B0
:1052B00000000000000000000000000000000000EE
:1052C0000000000000000000000000007F0001FF5F
:1052D000C00780F00C00181000042000020000003D
:1052E0000000002000021000040C00180780F001EC
:1052F000FFC0007F00000000000000000000000070
:10530000000000000000000042000066000066008F
:10531000003C0000180003FFC0001800003C000023
:10532000660000660000420000000000080000085F
:105330000000080000080000080001FFC00008008D
:10534000000800000800000800000800000000003D
:10535000000100003100003200001C0000000000CD
:10536000000000000000000000000000000000003D
:10537000000000000800000800000800000800000D
:1053800008000008000008000008000008000008ED
:10539000000000000000000000000000380000389D
:1053A00000003800000000000000000000000000C5
:1053B00000000000000000000000000000060000E7
:1053C0001C000070000180000E0000380000C000CA
:1053D0000700001C0000300000000000000000007A
:1053E0007F8001FFE00380700600180400080400BD
:1053F0000806001803807001FFE0007F80000000B5
:10540000000000000000010008010008010008037E
:10541000FFF807FFF800000800000800000800007F
:105420000000000000000001C03802C058040098CD
:10543000040118040218040418061C1803F81801C3
:10544000E0F800000000000000000001C0E003C020
:10545000F004000804080804080806180803F418F3
:1054600001E7F00001E00000000000000000000083
:105470000300000D0000110000610000810803011D
:105480000807FFF80FFFF8000108000108000000FE
:105490000000000000E007FCD0060808061008061F
:1054A0001008061008061838060FF00607C000009E
:1054B00000000000000000003F8001FFE003843096
:1054C0000208180410080410080410080718100334
:1054D0000FF00007C000000000000000000003C043
:1054E000000700000600000600F80607F80618008E
:1054F00006E00007000006000000000000000001B8
:10550000E1E003F7F0063410041808041808040C4E
:1055100008040C0806161803F3F001C1E0000000AF
:1055200000000000F80003FC300306380402080401
:1055300002080402080404100308F001FFC0007F01
:10554000000000000000000000000000000000005B
:105550000000000070380070380070380000000053
:10556000000000000000000000000000000000003B
:105570000000000000000000301A00301C00000095
:10558000000000000000000000000000000000001B
:10559000000000080000140000220000410000800C
:1055A00080010040020020040010080008000000F4
:1055B0000000000021000021000021000021000067
:1055C0002100002100002100002100002100002115
:1055D00000000000000000000000080008040010A7
:1055E00002002001004000808000410000220000F5
:1055F000140000080000000000000003C00004C008
:1056000000040000080038080F38080838081000A7
:105610000C300007E00003C00000000000000000A4
:105620003F8000FFE0038070020F1006708804C006
:1056300088048308047F8802C09003012000FE4094
:105640000000080000180001F8003E0801C2000731
:10565000020007E20000FE00001FC80001F8000081
:105660003800000804000807FFF807FFF8040808DE
:1056700004080804080804080806180803F41801B8
:10568000E7F00001E0000000000000003F8001FFA3
:10569000E0038070020018040008040008040008F9
:1056A0000400100600200780C00000000400080766
:1056B000FFF807FFF80400080400080400080400CD
:1056C0001802001003807001FFE0007F80000000DE
:1056D00004000807FFF807FFF80408080408080496
:1056E0000808040808043E08040008060018010021
:1056F0006000000004000807FFF807FFF80408082E
:10570000040800040800040800043E000600000627
:105710000000018000000000000000003F8001FF49
:10572000E003807006001804000804020804020860
:105730000203F00783F000020000020004000807E3
:10574000FFF807FFF8040808000800000800000838
:105750000000080004080807FFF807FFF804000825
:10576000000000000000040008040008040008070E
:10577000FFF807FFF8040008040008040008000010
:10578000000000000000000000060000070000010B
:1057900004000104000104000307FFFE07FFFC04EE
:1057A000000004000004000004000807FFF807FFE1
:1057B000F8040C08001800003E0004C7800503C868
:1057C0000600F80400380400180000080400080768
:1057D000FFF807FFF80400080000080000080000B8
:1057E0000800000800000800001800006000000029
:1057F00004000807FFF807800807FC00007FC000CE
:1058000003F80007C000780007800807FFF807FFCB
:10581000F804000804000807FFF807000803C000A8
:1058200000E000003800001E000007000001C00476
:1058300000F007FFF8040000000000007F8001FF77
:10584000E003807006001804000804000806001831
:1058500003003001FFE0007F800000000400080723
:10586000FFF807FFF804040804040004040004041B
:1058700000040400060C0003F80001F00000000022
:10588000000000007F8001FFE003807006008804B4
:1058900000880400C806003C03003E01FFE6007FCC
:1058A0008400000004000807FFF807FFF804080858
:1058B000040800040C00040F00040BC00610F003E1
:1058C000F03801E00800000800000001E0F803F0F3
:1058D00030063010041808041808040C08040C08DA
:1058E0000206180207F00781E000000001800006B0
:1058F000000004000004000004000807FFF807FF90
:10590000F804000804000004000006000001800004
:1059100004000007FFE007FFF00400180000080083
:10592000000800000800000800000804001007FF3D
:10593000E004000004000006000007E00007FE008D
:10594000041FE00001F80000380001E0043E0007F9
:10595000C00006000004000004000007E00007FF8C
:10596000C0041FF80007C007F80007FF80043FF8D5
:105970000007C004F8000700000400000000000455
:10598000000806001807C07805F1C8003E00001F97
:10599000800463E80780F80600180400080000008F
:1059A00004000006000007800007E008047C0800EF
:1059B0001FF80007F800180804E0080700000600B8
:1059C000000400000000000100080600380400F890
:1059D0000403E8040F08047C0805F00807C0080762
:1059E000001804006000000000000000000000003B
:1059F000000000000000003FFFFE20000220000227
:105A00002000022000022000020000000000000030
:105A1000000008000007000000C000003800000679
:105A2000000001C000003000000E00000100000076
:105A300000000000000020000220000220000220E0
:105A400000022000023FFFFE0000000000000000F6
:105A5000000000000000000000000000000800003E
:105A6000100000300000200000300000100000088E
:105A70000000000000000000000001000001000024
:105A80000100000100000100000100000100000110
:105A90000000010000010000010000010000000002
:105AA0000000000000200000200000100000100096
:105AB00000000000000000000000000000000000E6
:105AC0000000000000F00019F8001B180022080078
:105AD0002608002408002410003FF8001FF80000EA
